:020000040800F2
:10000000382500209D0100082B530008D13B000833
:1000100029530008C1140008A1690008000000006D
:10002000000000000000000000000000CD540008A7
:10003000A51B0008000000003D5300089D55000866
:10004000B7010008B7010008B7010008B7010008B0
:10005000B7010008B7010008B7010008B7010008A0
:10006000B7010008B7010008B7010008B701000890
:10007000B7010008B7010008B7010008B701000880
:10008000B7010008B7010008B7010008B701000870
:10009000B7010008B7010008B7010008B701000860
:1000A000B7010008B7010008B7010008B701000850
:1000B000B7010008B7010008B7010008B701000840
:1000C000B7010008B7010008B7010008B701000830
:1000D000B701000895690008B7010008B7010008DA
:1000E000B7010008B7010008B7010008B701000810
:1000F000B7010008B7010008B7010008B701000800
:10010000B7010008B7010008B7010008B7010008EF
:10011000B7010008B701000849560008B7010008F8
:10012000B7010008B7010008B7010008B7010008CF
:10013000B7010008B7010008B7010008B7010008BF
:10014000B7010008B7010008B7010008B7010008AF
:10015000B7010008B7010008B7010008B70100089F
:10016000B7010008B7010008B7010008B70100088F
:10017000B7010008B7010008B7010008000000003F
:10018000B7010008B7010008DFF80CD000F068FCE8
:1001900000480047058100083825002006488047B0
:1001A00006480047FEE7FEE7FEE7FEE7FEE7FEE75C
:1001B000FEE7FEE7FEE7FEE7395600088901000882
:1001C0002DE9F05F0546002092469B46884606468C
:1001D000814640241BE0284641464746224600F01F
:1001E000E8FA53465A46C01A914110D311461846B0
:1001F000224600F0CFFA2D1A67EB01084F4622463F
:100200000120002100F0C6FA17EB00094E41201E24
:10021000A4F10104DFDC484631462A464346BDE8E6
:10022000F09F40EA01039B0703D009E008C9121FB1
:1002300008C0042AFAD203E011F8013B00F8013BA0
:10024000521EF9D27047D2B201E000F8012B491ECC
:10025000FBD270470022F6E710B513460A46044663
:100260001946FFF7F0FF204610BD421E12F8013F6D
:10027000002BFBD111F8013B02F8013B002BF9D117
:10028000704730B505462A460B4612F8010B13F8A5
:10029000014B08B1A042F8D01CB1002802D06D1C5F
:1002A000F1E7284630BD10B5044604E00B7800F8AD
:1002B000013B03B1491C521EF8D2204610BDCAB200
:1002C000401E10F8011F8A4202D00029F9D10020F7
:1002D0007047421C10F8011B0029FBD1801A70479F
:1002E00030B504460020034600E05B1C934203D275
:1002F000E05CCD5C401BF8D030BD10B5044600E09A
:10030000401C0378002BFBD100E0401C521E04D39C
:1003100011F8013B0370002BF7D10021017020463A
:1003200010BD034611F8012B00F8012B002AF9D16A
:100330001846704770B5064606F0AEFB04680546E1
:100340000A220021304600F056FA2C6070BD2DE9DB
:10035000FE4F804681EA0300C00F0C46009021F05A
:10036000004123F00045B8EB0200A94105D2404608
:10037000214690461C460B46024623F0004010439F
:1003800047D0270DC7F30A00C3F30A510290401A61
:10039000019040286BDAC3F3130040F4801B0098EF
:1003A000924620B10023D2EB030A63EB0B0B0198BA
:1003B0005946C0F14002504600F0ECF906460D46A1
:1003C00050465946019A00F004FA10EB08006141CA
:1003D000002487EA115284EAE7731A4340D0009A56
:1003E00062B3019A012A4FEA075215DC001B61EB48
:1003F00002014FF0004202EA0752CDE90042001C20
:1004000041F5801132462B4600F073FA03B0BDE887
:10041000F08F40462146F9E7001B61EB0201001C0A
:1004200041F5801300185B412018A2F5001747EB37
:10043000030140EAD570B6196D4111E06D084FEA2D
:10044000360645EAC0754FEA0752001B61EB020110
:10045000001C41F5801149084FEA30000019514154
:1004600032462B4603B0BDE8F04F00F033BA009897
:10047000012240000023D0EB020263EBE0730098FE
:1004800021464FEAE074B8EB000061EB0401E9E7B4
:1004900083F000435BE781F0004158E72DE9FE4F10
:1004A00081EA030404F0004421F0004100944FF07D
:1004B000000B23F0004350EA01045ED052EA03042B
:1004C0005BD0C3F30A54C1F30A552C44A4F2F334AD
:1004D0000194A0FB0254C1F3130141F48011C3F352
:1004E000130343F4801301FB024400FB034E840A10
:1004F000970A44EA815447EA8357A4FB07680295A8
:100500008D0A05FB07854FEA932C04FB0C54270545
:10051000029D4FEA065847EA1637B5EB08056EEB21
:10052000070C870E920E47EA811742EA8312A7FB57
:100530000201B6EB0B0164EB00042B0D43EA0C3314
:100540005E1844EB1C50DA465146E7FB0201C5F346
:1005500013044FEA0B3343EA14534FEA0432019C6D
:1005600043EA0603A4F10C040294009CCDE900B414
:1005700000F0BFF903B0BDE8F08F00200146F9E7B5
:100580002DE9F04D81EA030404F0004B21F0004511
:1005900014464FF0000A23F0004150EA050220D033
:1005A00054EA01021DD0C5F30A570246C5F31303EE
:1005B000C1F31300C1F30A5640F4801543F48013CD
:1005C000A7EB0608101BD64608F2FD3873EB0500B2
:1005D00002D308F1010801E092185B41B8F1000F65
:1005E00003DA00200146BDE8F08D00204FF48011B1
:1005F000064684460EE0171B73EB050705D3121B56
:1006000063EB050306434CEA010C49084FEA30004E
:1006100092185B4150EA0107EDD152EA030012D073
:1006200082EA040083EA0501084305D0101BAB41B0
:1006300006D20122002306E000224FF0004302E030
:100640006FF0010253101AEB06004CEB085110EB4F
:100650000A0041EB0B01BDE8F04D00F03BB90EB5CF
:1006600040F2334102910021CDE900110A460B46C8
:1006700000F03FF903B000BDC1F30A5210B5C1F359
:10068000130140F2FF3341F480119A4201DA002055
:1006900010BD40F233439A42A2F2334203DC52428D
:1006A00000F087F810BD904010BD00F0004230F01F
:1006B00000400AD0C10D01F56071C0F3160042EA96
:1006C0000151C2084007114370470020014670479E
:1006D00030B5041E71F1000404DB4FF000444042C9
:1006E00064EB0101141E73F1000405DB1C464FF09E
:1006F0000043524263EB04038B4208BF824230BD89
:1007000030B5041E71F1000404DB4FF00044404298
:1007100064EB0101141E73F1000405DB1C464FF06D
:100720000043524263EB0403994208BF904230BD3C
:1007300001F0004330B421F0004150EA010206D03C
:100740000A0DA2F56072C1F31301002A02DC30BC6D
:1007500000207047440F44EAC104C100E01830BCD7
:1007600000EBC25000F07FB830B50B4601460020C8
:100770002022012409E021FA02F59D4205D303FA63
:1007800002F5491B04FA02F52844151EA2F10102E4
:10079000F1DC30BD202A04DB203A00FA02F100200F
:1007A00070479140C2F1200320FA03F319439040AF
:1007B0007047202A04DB203A21FA02F0002170471A
:1007C00021FA02F3D040C2F12002914008431946B9
:1007D0007047202A06DBCB17203A41FA02F043EAA1
:1007E000E07306E041FA02F3D040C2F120029140EA
:1007F0000843194670472DE9F04791460F46804659
:100800000446002614F8015B2DB100F03BF90068A6
:10081000405DC007F6D12B2D02D02D2D18D0641EBF
:100820004A463946204600F031F927B13968A142DD
:1008300001D1C7F8008071054FF002040BD540428A
:10084000002803DD06F028F90460A007BDE8F08762
:1008500046F48066E4E70028F8DA06F01DF9046043
:100860006FF00040F2E70029A8BF7047401C490024
:1008700008BF20F00100704710B4B0FA80FC00FA05
:100880000CF050EA010404BF10BC704749B1CCF130
:10089000200421FA04F411FA0CF118BF01212143BC
:1008A0000843A3EB0C01CB1D4FEA00614FEA102077
:1008B00042BF002010BC704700EBC3501044002919
:1008C000A4BF10BC7047401C490008BF20F00100C5
:1008D00010BC704710B5141E73F1000408DA401CF8
:1008E00041F1000192185B411A4301D120F001004F
:1008F00010BD2DE9F04D92469B4611B1B1FA81F23F
:1009000002E0B0FA80F220329046FFF743FF04463F
:100910000F4640EA0A0041EA0B0153465A46084393
:1009200013D0114653EA010019D0C8F140025046D5
:10093000FFF73FFF05460E46504659464246FFF731
:1009400029FF084305D0012004E020463946BDE8D0
:10095000F08D0020054346EAE0762C4337430A98A1
:100960006305E40AA0EB08000022FD0A44EA4754AC
:100970000A3002D500200146E9E701051019694156
:10098000DDE9084500196941BDE8F04DA2E72DE910
:10099000F04D00231A461B1A8A4103DB0020014652
:1009A000BDE8F08DC1F30A52C1F3130141F4801583
:1009B0004FF0000BD10702D100186D41521E0027E5
:1009C000044640F2FF11384601EB620A3E4680467B
:1009D000024600204FF48011FFF7EBFEC21971416F
:1009E000BB1846EB0100B4EB030C75EB000C04D311
:1009F000E41A65EB000517460E46241908F10100BC
:100A00006D4180463428E3DDF91946EB0600091BE9
:100A1000A84103D24FF0FF32134601E000221346F3
:100A20001BEB070046EB0A51BDE8F04DFFF752BF44
:100A3000C1F30A52C1F3130140F2FF3341F48011B4
:100A40009A4202DA00200146704740F233439A424C
:100A5000A2F2334202DC5242FFF7ABBEFFF79ABE6E
:100A6000064C074D06E0E06840F0010394E80700FB
:100A700098471034AC42F6D3FFF78AFB28B300083E
:100A800048B300080048704728B200082DE9F05F1D
:100A900082460078002715468B460AF10104B946C4
:100AA000302801D09DB113E014F8010B01277828FC
:100AB00003D0582801D045B10AE00DB1102D07D15F
:100AC0000027102514F8010B02E0082500E00A2594
:100AD0000026B0460EE005FB080005FB06F10127E5
:100AE00001EB10461FFA80F8B6F5803F00D3B946F7
:100AF00014F8010B294600F018F80028EBDABBF1D6
:100B0000000F05D00FB1641E00E05446CBF8004042
:100B1000B9F1000F06D005F0BFFF02210160C81E29
:100B2000BDE8F09F48EA0640FAE73A2800D230389C
:100B300020F02002412A01D3A2F13700884201D3DC
:100B40004FF0FF30704770B58C1810F8015B15F04E
:100B5000070301D110F8013B2A1106D110F8012B2F
:100B600003E010F8016B01F8016B5B1EF9D12B0754
:100B700005D40023521E0DD401F8013BFAE710F80A
:100B8000013BCB1A921C03E013F8015B01F8015BF7
:100B9000521EF9D5A142D8D3002070BD464910B5E8
:100BA0004A6822F440324A604A6843681A434A60FD
:100BB00001684A6822F480724A6001684A680369E1
:100BC00042EA03224A6001684A6822F040724A60A1
:100BD00001684A6883681A434A6001688A6822F497
:100BE00000628A6001688A68C3681A438A60816A01
:100BF0006FF07062D14201688A6822F070628A6088
:100C000001688A680CD0836A1A438A6001688A681E
:100C100022F040528A6001688A68C36A1A4301E080
:100C200022F040528A6001688A6822F002028A60DB
:100C300001688A68037E42EA43028A6090F82010C5
:100C4000002901684A680FD042F400624A600168D6
:100C50004A6822F460424A6001684A68174C436A55
:100C600004EB43331A4301E022F400624A60016856
:100C7000CA6A22F47002CA620168CA6A838B104C85
:100C800004EB03531A43CA6201688A6822F40072B3
:100C90008A6001688A6890F8303042EA43228A60AC
:100CA00001688A6822F480628A6001688A68406903
:100CB00042EA8020886010BD0023014000E0FFFF71
:100CC0000000F0FF02F0A6BF2DE9F0410D460146FD
:100CD000002004464E1908E00702301B401E80B277
:100CE00000F007F8641C3844E4B2AC42F4D3BDE829
:100CF000F08110B5044603F03FF8200AA02101EB73
:100D00004000C0B203F008F803F078F8E0B203F056
:100D100003F803F073F803F02FF8A12002F0FCFFB2
:100D200003F06CF8002002F0C3FF044603F044F81F
:100D3000204610BD2DE9F04116460D460746002419
:100D400009E0E00025FA00F0C1B2381980B200F0E5
:100D500006F8641CE4B2B442F3D3BDE8F08170B588
:100D60000D46044603F008F8200AA02101EB4000DC
:100D7000C0B202F0D1FF03F041F8E0B202F0CCFFC4
:100D800003F03CF8284602F0C7FF03F037F803F001
:100D900013F8BDE870400A2001F0CEBD10B58AB04E
:100DA00000240694079408942C4B2D4A2DA132A0C0
:100DB000099405F051FE06A8CDE90440029403947D
:100DC00000944FF48073254A254926A0019403F02E
:100DD0001DFC20B135A005F03FFE0AB010BD4FF458
:100DE000FA740798069982B2012007F077FE204630
:100DF00001F0A2FD012007F0CDF80028F1DD82B25C
:100E00003349012007F002FC012007F0C3F8304C01
:100E1000204604F047F8022819D1204603F067FF66
:100E2000062818D2DFE800F003080A0C0E10294942
:100E30000120087028A008E02CA006E032A004E001
:100E40003AA002E041A000E049A005F005FE06A896
:100E500003F054FBC1E751A0F7E7000070B20008AF
:100E60002CB200084D51545431266878727A794278
:100E7000457A524A7A0000000D0A4D5154545F449D
:100E800065764C696E6B0D0A50524F4944A3BA25E2
:100E9000732C0D0A41554946A3BA25732C0D0A44FB
:100EA00045564944A3BA25730D0A00005741524ED6
:100EB0003A094D5154545F5061636B6574436F6ED2
:100EC0006E656374204661696C65640D0A000000FC
:100ED00068100020F8000020546970733A09C1AC12
:100EE000BDD3B3C9B9A60D0A000000005741524E48
:100EF0003A09C1ACBDD3CAA7B0DCA3BAD0ADD2E920
:100F0000B4EDCEF30D0A00005741524E3A09C1AC80
:100F1000BDD3CAA7B0DCA3BAB7C7B7A8B5C4636CC2
:100F200069656E7469640D0A000000005741524EF5
:100F30003A09C1ACBDD3CAA7B0DCA3BAB7FECEF1A3
:100F4000C6F7CAA7B0DC0D0A000000005741524E98
:100F50003A09C1ACBDD3CAA7B0DCA3BAD3C3BBA7FF
:100F6000C3FBBBF2C3DCC2EBB4EDCEF30D0A000051
:100F70005741524E3A09C1ACBDD3CAA7B0DCA3BA9F
:100F8000B7C7B7A8C1B4BDD328B1C8C8E7746F6BE1
:100F9000656EB7C7B7A8290D0A0000004552523A3E
:100FA00009C1ACBDD3CAA7B0DCA3BACEB4D6AAB42B
:100FB000EDCEF30D0A00000070B588B000240D4698
:100FC0000A46064601460494059406940FA0079429
:100FD00005F042FD2846FFF77CF9034604A80121ED
:100FE000CDE9021000942A46019431460A2003F00C
:100FF0003FFC002808D10598049982B2012007F02F
:101000006DFD04A803F07AFA08B070BD5075626CEB
:1010100069736820546F7069633A2025732C204DE2
:1010200073673A2025730D0A000000002DE9F04196
:101030008046002092B004460290019003900490F4
:10104000059006908DF81C000646404603F02AFFE6
:101050000546C01E804F0D287ED2DFE800F01B98A9
:10106000A0B0CCFAD5FADDFAFAFA070001AA06A96F
:10107000404603F001FE040016D178A0019A0699BB
:1010800005F0EAFC02AA0199069803F081FA68B912
:1010900078A0A4E07048009007AB01AA06A94046DA
:1010A00003F032FE04000CD0601C55D07D21019865
:1010B000FFF705F9002871D0641CFCD00DAA401C74
:1010C000B5E072A0019A069905F0C6FC76A10698D3
:1010D000FFF7D7F800283AD074A10198FFF7D1F8AC
:1010E00068B10E30FFF726F9C1B28DF82C1073A04D
:1010F00005F0B2FC02220BA9754804F09BF975A11A
:101100000198FFF7BEF868B10D30FFF713F9C1B2CF
:101110008DF8281072A005F09FFC02220AA97548DC
:1011200004F088F962A10198FFF7ABF868B10A30C2
:10113000FFF700F9C1B28DF8301061A005F08CFC0A
:1011400002220CA96C4804F075F90120786001981E
:10115000FFF7BFF8024600E07BE068480199FFF71F
:1011600060F89DF81C00012809D002289ED102A930
:10117000388803F047FC002898D161A02FE002A92D
:10118000388803F0F9FB002890D163A027E040469F
:1011900003F054FE002889D165A032E04FE04046BC
:1011A00003F064FE002881D169A005F055FC02A976
:1011B0000A2003F04AFC0028D8D16BA00FE0398840
:1011C000404603F05FFE0028D0D16DA005F044FC3E
:1011D00002A90A2003F0F3FB0028C7D16EA005F096
:1011E0003BFC0398029982B2012007F077FC02A829
:1011F00003F084F95AE7404603F02CFE0028F9D1A9
:101200006CA005F029FC51E7404603F07BFE08B1D5
:101210006EA0F6E774A0F4E7404603F089FE08B13B
:1012200078A0EEE77FA0ECE79155401C761C017892
:10123000A1F13003092BF7D91046FFF77BF80F2DEA
:1012400001D0032D05D1069805F02AFC019805F080
:1012500027FC12B0BDE8F081F0000020636D6469E6
:10126000643A2025732C207265713A2025730D0A8B
:1012700000000000546970733A0953656E6420439E
:101280006D64526573700D0A00000000746F706920
:10129000633A2025730D0A7061796C6F61643A209E
:1012A00025730D0A0000000073657400736F696C8C
:1012B00048756D696469747900000000736F696C2A
:1012C00048756D69646974793D25640D0A000000F4
:1012D0000000060874656D70657261747572650052
:1012E00074656D70657261747572653D25640D0A73
:1012F0000000000000000A0800000808E8100020B4
:10130000546970733A0953656E64205075626C6954
:1013100073685265630D0A00546970733A09536526
:101320006E64205075626C69736841636B0D0A00CE
:10133000546970733A094D515454205075626C6968
:1013400073682053656E64204F4B0D0A0000000047
:10135000546970733A09526576205075626C6973EE
:10136000685265630D0A0000546970733A09536549
:101370006E64205075626C69736852656C0D0A006A
:10138000546970733A09526576205075626C6973BE
:101390006852656C0D0A0000546970733A09536510
:1013A0006E64205075626C697368436F6D700D0ACE
:1013B00000000000546970733A0952657620507538
:1013C000626C697368436F6D700D0A0054697073C5
:1013D0003A094D51545420537562736372696265C2
:1013E000204572720D0A0000546970733A094D511C
:1013F000545420537562736372696265204F4B0DBC
:101400000A000000546970733A094D515454205534
:101410006E537562736372696265204572720D0A5C
:1014200000000000546970733A094D51545420551E
:101430006E537562736372696265204F4B0D0A00CB
:1014400070B586B000240D460646019402940394BC
:10145000049406E056F8241012A005F0FDFA641C6E
:10146000E4B2AC42F6D301A800902B4632460021EC
:10147000142003F00DFB40B90298019982B20120BB
:1014800007F02CFB01A803F039F8642001F054FAAE
:10149000012006F07FFD82B20849012007F0B6F86E
:1014A00006B070BD53756273637269626520546FD4
:1014B0007069633A2025730D0A000000681000204F
:1014C000FEE700002DE9F047DFF8F88081468A4604
:1014D00000254646404605F065FA3B4C000A207060
:1014E000304605F05FFA08F1020760703E46384664
:1014F00005F058FA000AA070304605F053FAE07083
:10150000BE1C304605F04EFA000A2071304605F048
:1015100049FAC1B2617120786278E3781043A27809
:101520001A4310432279104308431AD12570082129
:101530006170DC22A270E57025716571404605F08E
:1015400037FAE078A17800EB012081B2384605F047
:101550002FFA6079217900EB012081B2304605F045
:1015600027FA194E1949403E86F80290C6F83CA069
:10157000E078227901445318617950400B44484087
:101580001844B063290A0F4801EB052421461030A6
:1015900005F00EFA290E280C01EB00270948394600
:1015A000123005F005FA07482146083005F000FA28
:1015B000044839460A3005F0FBF907F06DFA35703A
:1015C000BDE8F08708000068D40000207856341287
:1015D0002DE9F047574D2878062825D0564805F0C4
:1015E000E1F9C0B222280BD0002344220221184680
:1015F00008F0AAF851490020FFF764FF06F0C4FA8A
:10160000012606F017FE4B4C2978E41D0027C0B2D6
:10161000B0464FF0030AA4F1040905295FD2DFE8C0
:1016200001F0060D1F3556000520BDE8F087277034
:101630006770A770E77007F07BFB78E002284BD15A
:101640003FA005F009FAE86B017C2170417C6170D4
:10165000817CA170C07CE07007F064FC022034E063
:10166000052802D006280FD036E03BA005F0F4F99B
:1016700005F0D8FF10B1686A80474EE007F00CFA19
:10168000E86A80472F702AE039A04CE0A869042658
:10169000411C24D0E969B1EB500F20D93AA005F0E4
:1016A000DBF9217889F80010617889F80110A178B8
:1016B00089F80210E17889F80310A86B401CA86330
:1016C00007F030FC07F0E8F90420287007E0042652
:1016D000052806D0062825D005F0E8FF0646304646
:1016E000A3E76F7099F800102278484691420CD118
:1016F00041786278914208D18178A278914204D1F0
:1017000099F80300E178884204D0A86A032680474C
:1017100025A000E028A005F09FF907F0BDF985F8A5
:1017200000A0DCE729A005F097F907F0B5F985F8E6
:101730000080D4E7940000200802006880080020A0
:101740003E205265636569766520444843505F4F8B
:10175000464645520D0A00003E2052656365697693
:101760006520444843505F41434B0D0A0000000090
:101770003E205265636569766520444843505F4E5C
:1017800041434B0D0A0000003E204D61696E7461BB
:10179000696E7320746865204950206164647265C5
:1017A0007373200D0A0000003E4950206368616E8B
:1017B0006765642E0D0A00003E495020697320635E
:1017C0006F6E74696E7565642E0D0A003E20526559
:1017D000636569766520444843505F4E41434B2C16
:1017E000204661696C656420746F206D61696E7458
:1017F00061696E2069700D0A0000000070B5002458
:1018000000F02AF84FF48055124E04E0641CE4B254
:10181000012001F0A3F82946304601F0ABFA10B1DF
:10182000642CF3D30FE0642C0DD2002404E0641C7C
:10183000E4B2012001F092F82946304601F09AFA0C
:1018400018B1642C04D3012070BD642CEFD3FAE7E7
:10185000002070BD000C024000B587B0142168461E
:10186000FEF7F8FC0A480021026842F020020260FC
:10187000006800F0200005904FF48050CDE9000191
:10188000012002906946034801F07CF907B000BDD1
:1018900030380240000C024070B586B01421684612
:1018A000FEF7D8FC0D480025016841F020010160D9
:1018B0000068012200F02000094E14030590214623
:1018C000304601F05CFA0121CDE90041CDE9021575
:1018D0006946304601F056F906B070BD3038024016
:1018E000000C024010B500F069F8BDE81040FFF7A9
:1018F00085BF000070B500244FF48055134E04E0FE
:10190000641CE4B2012001F029F82946304601F0B8
:1019100031FA08B1642CF3D3002404E0641CE4B26F
:10192000012001F01BF82946304601F023FA08B9DE
:10193000642CF3D3282001F011F82946304601F039
:1019400019FA002800D0012070BD0000000C0240F0
:1019500070B5002004464006050EFFF7CBFF641C5F
:101960002843E4B2082CF6D370BD2DE9FC410D46A6
:10197000064600F023F8FFF741FF10B10120BDE853
:10198000FC8100246F46FFF7E3FF3855641CE4B286
:10199000052CF8D39DF800109DF801009DF8033048
:1019A0000A189DF8020003441A449DF804309A4234
:1019B00001D1297030700020E1E7000070B5FFF719
:1019C0006BFF0A4D4FF4805400222146284601F057
:1019D000D6F9142000F0B0FF01222146284601F07C
:1019E000CEF9BDE870401E2000F0B8BF000C0240E8
:1019F000034A107041F2221051605080704700007D
:101A0000E40000202DE9F0433B4D04468BB000205C
:101A10000F46687091463949A860FFF7E9FF002337
:101A20001A460221287807F08FFEE0780090A3780C
:101A30006278217832A005F00FF84FF480763346B3
:101A4000394600206A6806F001F93527009782B20E
:101A500023462878696807F0BBFBB846287806F06B
:101A600099FA07043F0C28D0B74200D9374604A89A
:101A7000009003AB3A462878696806F0A1FE9DF80D
:101A80000F1080B2BDF810200091CDE901209DF823
:101A90000E309DF80D209DF80C1024A004F0DCFF02
:101AA0004A4605A8696806F005FD0446287805F051
:101AB00047FE20460BB0BDE8F08305F02DFE002860
:101AC0000CDAE0780090A3786278217825A004F001
:101AD000C3FF287805F034FE0020EBE7BED12DA02F
:101AE00004F0BAFFCDF8008023463A4628786968AA
:101AF00007F06EFBB2E70000E4000020680C002055
:101B00003E20444E5320517565727920746F2044F5
:101B10004E5320536572766572203A2025642E2537
:101B2000642E25642E25640D0A0000003E205265B7
:101B3000636569766520444E53206D6573736167F4
:101B4000652066726F6D2025642E25642E25642E17
:101B50002564282564292E206C656E203D2025648F
:101B60000D0A00003E20444E532053657276657284
:101B7000206973206E6F7420726573706F6E646974
:101B80006E67203A2025642E25642E25642E256458
:101B90000D0A00003E20444E532054696D656F7558
:101BA000740D0A00704700002DE9FE43102560A067
:101BB000CDE9000500244FF6FF761F2332460221AF
:101BC0000294204600F02CFC5FA0CDE9000564489B
:101BD00002941F2340883246123881B2002000F060
:101BE0001FFC0C265FA0CDE900064FF6E0784346C7
:101BF0001F221E2102940A2003F06AFC5DA0CDE999
:101C0000000643461F2232210294502003F060FC5C
:101C10005AA0CDE900051F23DF023A463221029483
:101C20006E2003F055FC56A0CDE900051F233A466F
:101C300032210294A52003F04BFC52A0CDE900060E
:101C400043461F2232210294B42003F041FC46A0F7
:101C5000CDE9000643461F22502102940A2003F0DA
:101C600037FC4AA0CDE9000643461F2264210294B6
:101C7000502003F02DFC41A0CDE900051F233A467A
:101C8000642102946E2003F023FC3DA0CDE9000501
:101C90001F233A4664210294A52003F019FC3DA0BD
:101CA000CDE9000643461F2264210294B42003F0CC
:101CB0000FFC3AA0CDE9000643461F228221029480
:101CC0000A2003F005FC39A0CDE9000643461F2297
:101CD00096210294502003F0FBFB28A0CDE90005DB
:101CE0001F233A46962102946E2003F0F1FB24A0B4
:101CF000CDE900051F233A4696210294A52003F062
:101D0000E7FB2CA0CDE9000643461F229621029452
:101D1000B42003F0DDFB29A0CDE9000543461F22D6
:101D2000B42102940A2003F0D3FBBDE8FE83000037
:101D3000494E54454C4C4947454E20414752494332
:101D4000554C545552450000687474703A2F2F77E3
:101D500077772E77697A6E65742E636F6D00000059
:101D600028190020736F696C48756D69646974790E
:101D70003A00000056616C313A0000002D0000006E
:101D80002B00000066616E313A00000056616C3233
:101D90003A00000066616E323A00000074656D70B2
:101DA000657261747572653A0000000056616C33AB
:101DB0003A00000066616E333A0000004C696768C3
:101DC000744C75783A00000072B6FEE7002229B123
:101DD00001291AD002291BD04FF440720E490B681A
:101DE00023F440730B600B6813430B600A6822F006
:101DF000F8020A600A68022303EBC00002430A608B
:101E0000086840F48030086070474FF48072E5E75E
:101E10004FF40072E2E70000103C024013480168F2
:101E200089050FD5016821F400710160016841F452
:101E300000610160016821F400610160016841F402
:101E400000710160016849050FD5016821F48061C6
:101E50000160016841F480510160016821F4805102
:101E60000160016841F4806101607047003C0240FC
:101E700008490A6822F440720A600A6842F00402C3
:101E80000A600A684FF4803343EA002002430A6084
:101E900070470000103C0240064A136823F4407368
:101EA000136013681360136843F00103136001703B
:101EB00070470000103C0240094910B50C6824F43A
:101EC00040740C600C6844F440740C600C6844F07E
:101ED00001040C600260BFF36F8F436010BD00000F
:101EE000103C0240074A136823F4407313601368E0
:101EF00043F480731360136843F00103136001809F
:101F000070470000103C0240074A136823F44073F6
:101F10001360136843F400731360136843F0010304
:101F20001360016070470000103C024017490868C8
:101F3000C206174805D5C26942F01002C2611022DC
:101F40000A600A68920605D5C26942F00802C261B9
:101F500020220A600A68520605D5C26942F00402CE
:101F6000C26140220A600A68120605D5C26942F0C1
:101F70000202C26180220A600A68920705D5C2691E
:101F800042F02002C2610220086070470C3C02400F
:101F90003408002070B5114904460020C86100F0E3
:101FA000F3FE06460E4D09E0601C07D024B100F098
:101FB000EBFE801BA04201D9032070BD2868C0033E
:101FC000F2D42868C00701D001202860286810F0EA
:101FD000F200F2D0FFF7AAFF012070BD3408002004
:101FE0000C3C024030B5B3F5804F05D06FF0704126
:101FF00040F82210002030BD8C690B688D682343A7
:102000004C688989240144EA0524234343EA0141B9
:1020100050F82230014C23401943E9E70000F0CF8B
:1020200010B50A6850F8223023F0010340F822303E
:102030008C68082C23D000234A682243CC681C43B8
:102040000B6922431A434B690E4C1A43CB691A435E
:102050000B6A1A434B6A1A438B6A1A43CB6A1A43B8
:102060000B6B1A438B691343CA6B09681A4350F808
:102070002130A343134340F82130002010BD4023FA
:10208000DAE700007FFF0F0030B5D1E9003443EA02
:1020900004138C688D89240244EA054423430C8A86
:1020A000094D00EB820005EB045423430C7D6D01C8
:1020B00005EB0464896923430B43416801F0404107
:1020C0000B434360002030BD0000F0FF01220221DD
:1020D000014800F054BE0000001802400022022116
:1020E000014800F04CBE0000001802400122D1025D
:1020F000014800F044BE00000008024000224FF4F6
:102100000061014800F03BBE0008024001221103BB
:10211000014800F034BE00000008024000224FF4E5
:102120008051014800F02BBE0008024010B502218A
:10213000034800F01FFE08B1002010BD012010BDB3
:10214000001802402DE9FF4F83B004463E20CDE940
:102150000040DDF844B000274FF080093148109A64
:1021600007EB071110F811301278934240D100EBC1
:10217000410A10989AF801104078814238D10498A9
:1021800004990F3083B204F10F0082B2204602F0AE
:1021900025F8002600250AEB060800BFBBF1000F5A
:1021A00013D021490598088098F8021029FA05F003
:1021B000014203D02046049901F0C6FE641C009839
:1021C000A4B2201A102826D00AE098F8021029FAA2
:1021D00005F0014201D0059800E0069802F078F978
:1021E0006D1CEDB2082DD9D3761CF6B2202ED1D3BA
:1021F0007F1C0198BFB28742B0D30C484188008849
:1022000007B0491EBDE8F04F401E8BB282B20021DC
:10221000084601F0E3BF0498009C401C80B2049083
:10222000E2E700005CA500088806002028190020CD
:102230002DE9FF4F83B004460720CDE90040DDF8CB
:1022400044B000274FF0800907EB870000EB4711EF
:102250003048109A10F811301278934240D100EBB8
:10226000410A10989AF801104078814238D10498B8
:102270000499173083B204F1170082B2204601F0AE
:10228000ADFF002600250AEB060800BFBBF1000FDA
:1022900013D021490598088098F8021029FA05F012
:1022A000014203D02046049901F04EFE641C0098C0
:1022B000A4B2201A182826D00AE098F8021029FAA9
:1022C00005F0014201D0059800E0069802F000F9FF
:1022D0006D1CEDB2082DD9D3761CF6B2482ED1D3A1
:1022E0007F1C0198BFB28742AED30C48418800885A
:1022F00007B0491EBDE8F04F401E8BB282B20021EC
:10230000084601F06BBF0498009C401C80B204900A
:10231000E2E7000098AD0008880600202819002098
:102320002DE9FF4F83B004460420CDE90040DDF8DD
:1023300044B000274FF080093148109A07EB87110D
:1023400010F811301278934240D100EB410A1098F6
:102350009AF801104078814238D1049804991F30CE
:1023600083B204F11F0082B2204601F037FF00263D
:1023700000250AEB060800BFBBF1000F13D021496E
:102380000598088098F8021029FA05F0014203D058
:102390002046049901F0D8FD641C0098A4B2201ACC
:1023A000202826D00AE098F8021029FA05F0014208
:1023B00001D0059800E0069802F08AF86D1CEDB295
:1023C000082DD9D3761CF6B2802ED1D37F1C01986C
:1023D000BFB28742B0D30C484188008807B0491E7D
:1023E000BDE8F04F401E8BB282B20021084601F0DA
:1023F000F5BE0498009C401C80B20490E2E7000007
:102400009EAF0008880600202819002010B5144649
:1024100001F0E0FE2046BDE8104002F059B800008F
:102420002DE9FE431F46DDE90A46904689462046CF
:102430000C9DFDF74EFF0A4980B240420988CDE964
:10244000004601EBC00000EBD070C0F34F003B46EC
:1024500042464946029503F03BF8BDE8FE83000082
:102460002819002078B50024009490F83C20012A17
:1024700019D0012280F83C200A6807230568092A40
:1024800013D9EE680A3A02EB420293409E43EE6093
:102490000B788A680A3B03EB43039A400368DD68C4
:1024A0002A43DA6010E0022078BD2E6902EB420276
:1024B00093409E432E610B788A6803EB43039A4056
:1024C00003681D692A431A614A681F23072A13D229
:1024D00005686E6B521E02EB820293409E436E6350
:1024E0000B790A885B1E92B203EB83039A40036860
:1024F0005D6B2A435A6327E005680D2A12D22E6BC2
:10250000D21F02EB820293409E432E630B790A880E
:10251000DB1F92B203EB83039A4003681D6B2A43CF
:102520001A6311E0EE6A0D3A02EB820293409E4379
:10253000EE620B790A880D3B92B203EB83039A405B
:102540000368DD6A2A43DA62164B0568144A9D4225
:1025500006D10D68122D03D1556845F480055560EC
:1025600005689D4218D10B68102B01D0112B13D197
:10257000536843F400035360096810290CD10A49D9
:102580000A4A0968B1FBF2F101EB8101490000E060
:10259000491E00910029FBD180F83C40002078BD05
:1025A00000230140002001401400002040420F00A1
:1025B0000068C06C704770B504004FF0000503D090
:1025C000206C002610B107E0012070BD204600F00D
:1025D0001DF8666484F83C60206CC00610D4206C42
:1025E00020F4885040F0020020642046FEF7D6FA1E
:1025F0006664206C20F0020040F00100206400E0DE
:10260000012584F83C60284670BD000070B586B096
:10261000044614216846FDF71DFE1D491B4E256822
:1026200000231B4A143903241A48B54211D11568F6
:1026300045F480751560126802F4807205920A688C
:1026400042F004020A60096801F0040105911021BA
:1026500013E0114EB54216D1156845F400751560AA
:10266000126802F4007205920A6842F004020A60DD
:10267000096801F0040105911821CDE900140293C5
:10268000694600F07FFA06B070BD000000200140EE
:102690004438024000080240002101402DE9F04189
:1026A000044600680D4681684FF0000749050BD5C8
:1026B0008068C00508D5206C40F02000206484F8B4
:1026C0003C700120BDE8F08100F05EFB064613E09F
:1026D000681C11D025B100F057FB801BA8420BD914
:1026E00020680068800707D4206C40F00400206454
:1026F00084F83C700320E5E7206800688007E7D590
:1027000021686FF012000860206C40F400702064B3
:102710002068816811F0405F13D1217E89B9C16AB8
:1027200011F4700F02D0806840050AD4206C20F4A8
:1027300080702064206CC00403D4206C40F0010041
:1027400020640020BEE7000018B50021009190F839
:102750003C20012A07D0012280F83C2002689368BF
:10276000DB0702D011E0022018BD936843F001039B
:1027700093602E4A2E4B1268B2FBF3F202EB420238
:1027800000E0521E0092002AFBD102689368DB072A
:1027900042D0036C40F20164A34343F480730364AA
:1027A00053685B0505D5036C23F4005343F4805351
:1027B0000364036CDB0404D5436C23F00603436419
:1027C00000E0416480F83C101A496FF02203136066
:1027D00049680068CA06184906D0884224D1816831
:1027E00011F0405F13D01FE08842F8D0134A9042A6
:1027F00003D1D1F80423D206F1D0114A904213D16B
:10280000D1F8041301F01F011029E8D30CE081680E
:1028100041F08041816007E0016C41F010010164EA
:10282000416C41F001014164002018BD14000020FA
:1028300040420F00002301400020014000210140E0
:102840000022014090F83C1001290CD0012180F8B1
:102850003C1001688A6822F001028A600168896878
:10286000C90702D007E002207047016C21F48851AB
:1028700041F001010164002180F83C1008467047D6
:102880002DE9F0410446876D00F07EFA064694F883
:1028900035000025022806D08020606584F8345079
:1028A0000120BDE8F0812068016821F01601016077
:1028B0002068416921F080014161206C08B9A06C59
:1028C00020B12068016821F00801016020680168DA
:1028D00021F0010101600CE000F056FA801B052890
:1028E00007D920206065032084F8350084F834502F
:1028F000D7E720680068C007EED194F85C103F204D
:102900008840B860012084F8350084F834500020F5
:10291000C7E790F83510022903D0802141650120D6
:102920007047052180F835100068016821F0010129
:10293000016000207047000070B5044600F024FAE2
:102940000546601C02D004480078044400F01CFADC
:10295000401BA042FAD370BD0800002010B5044609
:1029600000F04CFB0849B0FBF1F000F083FD601E65
:10297000FFF7E2FF00F042FB4FF47A71B0FBF1F099
:10298000BDE8104000F076BD40420F002DE9F04751
:10299000044622480F46017E01290AD001218046C3
:1029A00001764CF250394846FFF7F4FA020003D0A2
:1029B0002FE00220BDE8F0874FF0FF30386020683C
:1029C000174D012801D0A6681CE0207C6168FFF744
:1029D0004FFA4846FFF7DEFA0246286820F0040066
:1029E000286014E0217C3046FFF7F0F94846FFF7F5
:1029F000D1FA0200286820F0FA00286001D03E6079
:102A000005E0761CD4E902100844B042EAD8FFF78A
:102A100005FA002188F818101046CBE7340800208A
:102A2000103C02400348016841F000410160002071
:102A300070470000103C02402DE9F0471B4E054650
:102A40001446307E1F468946012808D00120307682
:102A50004CF250384046FFF79DFA18B114E00220BE
:102A6000BDE8F0879DB1012D16D0022D19D0224668
:102A70003B464846FFF720FA4046FFF78BFA0C49E1
:102A80000A6822F001020A6000213176E8E7E1B22B
:102A90004846FFF701FAEFE7A1B24846FFF722FAEE
:102AA000EAE721464846FFF72FFAE5E73408002019
:102AB000103C0240074900200A68002A09DA054A4A
:102AC000054B0C3A1360054B13600968002900DAC6
:102AD00001207047103C024023016745AB89EFCDD0
:102AE000F0B587B014216846FDF7B4FB1F480168B4
:102AF000002939D1012101601D480024016841F0FD
:102B0000010101600068022500F00100059047F214
:102B10003F00CDE9000502AA03260C2782E8D00079
:102B20006946144800F02EF84FF68070CDE9000594
:102B300002AA694682E8D0000F4800F023F84CF260
:102B40003370CDE9000502AA694682E8D0000B483F
:102B500000F018F86802CDE9000502AA694682E88B
:102B6000D000074800F00EF807B0F0BD00000020CC
:102B7000383802400014024000100240000C0240AD
:102B8000001802402DE9F84FDFF8BCA10022012512
:102B900003264FF00F090AF1040BAAF1040E00BF3F
:102BA0000B6805FA02F42340A34270D10F7907F0B5
:102BB0000307012F01D0022F16D187684FEA420880
:102BC00006FA08FC27EA0C07D1F80CC00CFA08FC3E
:102BD0004CEA070CC0F808C04768A7430C79C4F357
:102BE000001494403C4344600C79E443A4070AD0A9
:102BF000C4684FEA420C06FA0CF7BC438F6807FA28
:102C00000CF72743C7600C7904F00304022C12D19F
:102C1000D40800EB840CDCF820405707FF0E09FABB
:102C200007F824EA0804D1F8108008FA07F848EAFF
:102C30000408CCF8208004684FEA420C06FA0CF72E
:102C4000BC430F7907F0030707FA0CF72743076027
:102C50004C6814F4403F70D03C4C276847F48047E0
:102C60002760246822F0030704F480440094384C61
:102C700007EB040CDCF8084897074FEA177809FAC5
:102C800008F7BC43334FB84202D1002724E054E098
:102C9000314FB84201D101271EE0304FB84201D177
:102CA000022719E02E4FB84201D1032714E02D4F1F
:102CB000B84201D104270FE02B4FB84201D10527BC
:102CC0000AE02A4FB84201D1062705E0284FB84252
:102CD00001D1072700E0082707FA08F72743CCF8B7
:102CE0000878DAF800405746D1F804C09C435FEA00
:102CF000CC2C00D51C433C60DBF800405F46D1F88B
:102D000004C09C435FEA8C2C00D51C433C60DEF879
:102D100000407746D1F804C09C435FEA8C3C00D564
:102D20001C433C60084F083F3C68D1F804C09C43FA
:102D30005FEACC3C00D51C433C60521C102AFFF4D7
:102D40002FAFBDE8F88F0000083C01404438024036
:102D50000030014000000240000402400008024030
:102D6000000C024000100240001402400018024013
:102D7000001C02400069084000D0012070470AB1E1
:102D8000816170470904FBE70148806870470000D3
:102D90000800002002488168027811448160704771
:102DA000080000200B4810B5016841F40071016073
:102DB000016841F480610160016841F48071016043
:102DC000032000F06FF80F2000F006F800F024F860
:102DD000002010BD003C024070B50D4D04464FF47C
:102DE0007A712878B1FBF0F00A490968B1FBF0F07C
:102DF00000F040FB48B9102C07D200222146501E9B
:102E000000F030F800206C6070BD012070BD000043
:102E100008000020140000200A4808B5016841F4A9
:102E200080410160006800F4804000900548001F68
:102E3000016841F080510160006800F0805000900E
:102E400008BD000044380240002809DB00F01F02E2
:102E5000012191404009800000F1E020C0F80011FC
:102E600070470000F0B40E4B1B680C46C3F30223FE
:102E7000C3F10705042D00D90425191D072901D226
:102E8000002300E0DB1E012606FA05F1491E214061
:102E900099409E40761E16403143F0BC03F0ECBDD5
:102EA0000CED00E0064900F0070208684FF6FF034A
:102EB000184040EA0220034A1043086070470000AF
:102EC0000CED00E00000FA052DE9F0470E46050084
:102ED00065D0DFF81481D8F80000F7B200F00700E1
:102EE000B04207D288F80070D8F8000000F0070060
:102EF000B04254D128683D4C810712D5400703D514
:102F0000206840F4E05020602878000703D520684E
:102F100040F4604020602068A96820F0F000084379
:102F200020602878C0072DD030496868083901280A
:102F300012D0022813D0032811D00968890700296C
:102F40002DDA216821F0030101432160FFF71CFF06
:102F5000814641F2883A0EE009688903EFE7096883
:102F60008901ECE7FFF710FFA0EB0901514502D9F9
:102F70000320BDE8F0872068696800F00C00B0EB22
:102F8000810FEFD1D8F80010404601F00701B1429F
:102F900007D90770006800F00700B04201D0012097
:102FA000E7E72878400705D52068E96820F4E05075
:102FB000084320602878000706D52068296920F496
:102FC000604040EAC100206000F03EF82168084AF5
:102FD000C1F30311515CC840064908600648006807
:102FE000FFF7FAFE0020C4E7003C02400838024028
:102FF000E09A0008140000200C000020014800683E
:103000007047000014000020044805490068096862
:10301000044AC1F38221515CC8407047140000206B
:1030200008380240F09A0008044805490068096819
:10303000044AC1F34231515CC8407047140000207B
:1030400008380240F09A0008154810B5006810F0E2
:103050000C02144813D04110042A0FD0082A0ED1B4
:103060000F4C241F2268236802F03F025B0207D541
:103070002068C0F38810A0FB010106E0084610BDDF
:103080002168C1F38811A1FB00010023FDF798F826
:103090002168C1F30141491C4900B0FBF1F010BDAA
:1030A000083802400024F4002DE9F84F04006ED0E7
:1030B0002078DFF84C93C007A9F104054AD009F144
:1030C00004000168C1F38101012908D00068C0F340
:1030D000810002280AD1D9F80000400206D52868EC
:1030E000800337D560680028E1D033E06068B0F530
:1030F000803F10D0B0F5A02F286810D020F4803089
:103100002860286820F4802028606068A8B1FFF754
:103110003BFE06460DE0286840F48030F4E740F4BA
:1031200080202860F7E700BFFFF72EFE801B642891
:1031300073D828688003F7D50CE0FFF725FE064614
:1031400005E000BFFFF720FE801B6428F0D8286848
:103150008003F7D42078DFF8AC8280074FF0000AB4
:103160003ED5A748001D016811F00C0F08D000687B
:10317000C0F3810002280BD1D9F80000400207D427
:103180002868800716D5E068012800D112E033E1F5
:10319000E068B8B10120C8F80000FFF7F5FD064669
:1031A00005E000BFFFF7F0FD801B0228C0D82868AB
:1031B0008007F7D52868216920F0F80040EAC100AF
:1031C00028600DE0C8F800A0FFF7DEFD064604E029
:1031D000FFF7DAFD801B02281FD828688007F7D484
:1031E0002078000722D5864F87486169703771B112
:1031F00001210160FFF7C8FD064604E0FFF7C4FDAA
:10320000801B022809D838688007F7D50EE0C0F87F
:1032100000A0FFF7B9FD064605E082E0FFF7B4FD28
:10322000801B02287DD838688007F7D420784007B3
:1032300068D5DFF8CCB100270BF13C0BDBF80000C0
:10324000C0000BD4DBF8001041F08051CBF8001027
:10325000DBF80000012700F0805000906B4E3068D2
:10326000C00510D4306840F480703060FFF78CFDEA
:10327000009005E0FFF788FD0099401A022850D819
:103280003068C005F6D55E4EA0686C3601280FD0B8
:103290000528306810D020F001003060306820F040
:1032A00004003060A068B8B1FFF76EFD00900FE039
:1032B000306840F00100F4E740F004003060F7E7C8
:1032C000FFF762FD0099411A41F28830814266D8C9
:1032D00030688007F4D50EE0FFF756FD009007E058
:1032E000FFF752FD0099411A41F28830814256D8C9
:1032F00030688007F4D42FB1DBF8001021F0805142
:10330000CBF80010A069C8B33D49091D0968C1F395
:10331000810102294AD00228504607D0C8F860002F
:1033200000E03CE0FFF730FD04463BE04746C8F8CC
:103330006000FFF729FD064605E000BFFFF724FD0A
:10334000801B02282BD828688001F7D4D4E9070114
:103350000843A16A2E4A490802EB0141626A41EA28
:103360008211084394F82C1040EA0161C9F800105A
:1033700001203866FFF708FD044606E03EE000BF86
:10338000FFF702FD001B022809D828688001F7D545
:1033900034E000BFFFF7F8FC001B022802D903202D
:1033A000BDE8F88F28688001F4D427E00128F7D021
:1033B000D9F80000E26900F4800191421CD1226A30
:1033C00000F03F01914217D147F6C071626A014097
:1033D000B1EB821F10D1A26A4FF0FF3300F44031ED
:1033E00003EB5202B1EB024F06D194F82C1000F01F
:1033F0007060B0EB016F01D00120D1E70020CFE772
:103400000438024000004742800E474200700040EE
:103410000000FFFF70B515460E46040003D094F877
:10342000490010B107E0012070BD002084F8480079
:10343000204600F01DF804F108012068FEF7F0FDB9
:103440003146A2682068FEF71FFED4E90102294632
:10345000236BFEF7C7FD2168A06851F8202042F0D9
:10346000010241F82020012084F84900002070BDAD
:10347000FFF736BB10B5401EB0F1807F01D30120AD
:1034800010BD4FF0E02460610F21601703F0F4FAE3
:103490000020A06107202061002010BD7047704708
:1034A00070B590F83C20012A32D0012480F83C40CD
:1034B000022280F83D2003685A689D6822F0700659
:1034C0000A6832435A60134B02689A4214D0B2F130
:1034D000804F11D0104B9A420ED0104B9A420BD015
:1034E0000F4B9A4208D00F4B9A4205D00E4B9A428E
:1034F00002D00E4B9A4204D1496825F0800319434B
:10350000916080F83D40002180F83C10084670BD75
:10351000022070BD0000014000040040000800408F
:10352000000C004000040140004001400018004031
:1035300010B5040003D094F83D0010B107E001205D
:1035400010BD002084F83C00204600F01FF8022047
:1035500084F83D00211D206802F07CF8012084F8E9
:10356000460084F83E0084F83F0084F8400084F868
:10357000410084F8420084F8430084F8440084F851
:10358000450084F83D00002010BD000008B500682B
:103590000B49884212D10B48016841F010010160CB
:1035A0000068002200F01000009011463620FFF75E
:1035B00059FCBDE808403620FFF746BC08BD0000B6
:1035C000001000404038024090F83D10012901D021
:1035D00001207047022180F83D100168CA6842F05E
:1035E0000102CA6000681149884214D0B0F1804FCE
:1035F00011D00F4988420ED00E4988420BD00E4997
:10360000884208D00D49884205D00D49884202D031
:103610000C49884204D1816801F00701062903D0D2
:10362000016841F001010160002070470000014085
:103630000004004000080040000C0040000401406D
:103640000040014000180040704770B50446006813
:1036500001694FF00005C943890715D4C168C94302
:10366000890711D4E91E0161012020772068806953
:103670008007204602D0FFF7E7FF04E000F098F84B
:10368000204600F096F8257720680169C94349076C
:1036900017D4C168C943490713D46FF0040101610D
:1036A000022020772068806910F4407F204602D0F5
:1036B000FFF7CAFF04E000F07BF8204600F079F83D
:1036C000257720680169C943090716D4C168C94331
:1036D000090712D46FF008010161042020772068E7
:1036E000C0698007204602D0FFF7AEFF04E000F07B
:1036F0005FF8204600F05DF8257720680169C9432E
:10370000C90617D4C168C943C90613D46FF01001A4
:103710000161082020772068C06910F4407F2046AE
:1037200002D0FFF791FF04E000F042F8204600F0DD
:1037300040F8257720680169C943C90708D1C168E5
:10374000C943C90704D1891E0161204600F032F83F
:1037500020680169C943090609D4C168C94309063B
:1037600005D46FF0800101612046FFF797FE2068C5
:103770000169C943490609D4C168C943490605D44A
:103780006FF040010161204600F01EF820680169D9
:10379000C94389060BD4C168C943890607D46FF0B1
:1037A000200101612046BDE87040FFF778BE70BD82
:1037B00070477047034900680968884201D106F0E4
:1037C00079B87047A807002070477047704700001D
:1037D000F8B5016804460868CA684B6910F00F0F15
:1037E0004FF000055AD003F0010602F490773743FA
:1037F00065D0C10705D0D10503D5216C41F0010189
:103800002164410705D5D90703D0216C41F002019D
:103810002164810705D5D90703D0216C41F004014B
:103820002164010707D502F02001314303D0216C48
:1038300041F008012164216C00293BD0800604D5A9
:10384000900602D5204602F082FF20684069216C74
:10385000C0F3801001F00801014320462BD002F094
:103860004FFF20684069400621D52068143050E899
:10387000001F21F0400140E80012002AF5D1A06BA2
:10388000A8B16C490165A06BFFF743F8002811D07F
:10389000A06B016D01B0BDE8F040084783060ED56E
:1038A00093060CD52046BDE8F84002F050BF2046F4
:1038B000FFF78CFFF8BDFFF789FF2564F8BD266B85
:1038C0002023012E79D1C60677D5D60675D508688E
:1038D000486800904869400640D5A16B0868406878
:1038E0000004000CEAD0A28D8242E7D9E085C869C5
:1038F000B0F5807F2DD020680C3050E8001F21F4F7
:10390000807140E80012002AF5D12068143050E898
:10391000001F21F0010140E80012002AF5D12068C3
:10392000143050E8001F21F0400140E80012002A46
:10393000F5D184F83E30256320680C3050E8001F34
:1039400021F0100140E80012002AF5D1A06BFEF72B
:1039500097FFA08DE18D401A81B229E0A08DE18D05
:10396000401A81B2E08D0028A8D00029A6D0206896
:103970000C3050E8002F22F4907240E80026002E10
:10398000F5D12068143050E8002F22F0010240E801
:103990000026002EF5D184F83E30256320680C30D7
:1039A00050E8002F22F0100240E80023002BF5D150
:1039B0002046FFF70AFFF8BDFFE705062BD51506E1
:1039C00029D594F83D002128F5D1A068B0F5805F95
:1039D00001D12069B0B1206A411C216221680078C0
:1039E0004860E08C401E0004000CE084E3D12068B5
:1039F000C16821F08001C1602068C16841F04001C8
:103A0000C160D8E7206A0088C0F308004860206AD7
:103A1000801C2062E5E74006CDD55006CBD5CA68AC
:103A2000204622F04002CA6084F83D3000F0CFF812
:103A3000C1E70000F166000870B5040004D094F8F6
:103A40003D00002510B106E0012070BD84F83C5017
:103A5000204600F023F8242084F83D002068C16847
:103A600021F40051C160204602F0D2FE20680169B5
:103A700021F4904101612068416921F02A014161EE
:103A80002068C16841F40051C1602564202084F899
:103A90003D0084F83E00002070BD000010B586B0E7
:103AA000044614216846FCF7D5FB18492068884273
:103AB00029D117480021026842F010020260006814
:103AC00000F01000059012481438026842F001021C
:103AD0000260006800F0010005904FF4C0600090A3
:103AE0000220CDE9010103200390072004906946DC
:103AF0000848FFF747F8002211462520FFF7B2F9E2
:103B00002520FFF7A1F906B010BD0000001001400C
:103B10004438024000000240704700002DE9F8439D
:103B2000044690F83D001F4616460D4620284CD10D
:103B3000C5B1BEB194F83C00012846D0012084F8FC
:103B40003C004FF00008C4F84080212084F83D007C
:103B5000FFF71AF9A6848146E684A068B0F5805F75
:103B600003D004E00120BDE8F883206928B12E4687
:103B70005FF0000584F83C800EE00026FAE7802123
:103B8000204602F0CBFEA0B9AEB116F8010B2168B9
:103B90004860E08C401EE084E08C4B464FF0000211
:103BA00000970028EBD14FF04001204602F0B6FE0E
:103BB00030B10320D7E735F8020BC0F30800E6E781
:103BC000202084F83D000020CDE70220CBE770479D
:103BD000FEE7000070B50D4C0025C4F8A0520C485B
:103BE000016821F440210160016841F480210160F5
:103BF000C4F8A452022004F52874FEF7AFFE012099
:103C000020600220FEF7AAFE256070BD00804042C1
:103C10000004024030B587B014216846FCF71AFB57
:103C20001048016841F00201016000680E4D00F08B
:103C300002004FF440740590002221462846FFF709
:103C40009EF8009401240220CDE9024069460194C7
:103C50002846FEF797FF0548C0F8A042C0F8A442E6
:103C600007B030BD303802400004024000804042BE
:103C700070B50D4C0025C4F8A0520C48016821F421
:103C800040210160016841F4802101600126C4F8EF
:103C9000A462022004F52874FEF760FE266002206C
:103CA000FEF75CFE256070BD0080404200040240CB
:103CB0002DE9F047814616480024016821F440218F
:103CC000016001680160134E254627464FF0010848
:103CD000C6F8A0720220FEF741FEC6F8A082600678
:103CE000040ED6F8240208B1641CE4B20120FEF7E9
:103CF00035FE6D1CEDB2082DEAD3B9F1000F04D0EA
:103D0000FFF768FF2046BDE8F087FFF7B1FFF9E74E
:103D100000040240008040422DE9F041064614486C
:103D2000016821F440210160016841F480210160B3
:103D3000104C0027C4F8A0723D464FF00108F0096E
:103D4000C4F8A4027006060E0220FEF707FEC4F8AF
:103D5000A0820220FEF702FEC4F8A0720220FEF745
:103D6000FDFD6D1CEDB2082DE9D3BDE8F08100002A
:103D7000000402400080404270B50D48016821F403
:103D800040210160016841F480210160094C01205B
:103D9000C4F8A402C4F8A002042004F52874FEF7B5
:103DA000DDFD002565600420FEF7D8FD256070BDAF
:103DB00000040240008040420E4810B5016821F422
:103DC00040210160016841F4802101600A4C00201B
:103DD000C4F8A002C4F8A402042004F52874FEF775
:103DE000BDFD012020606060BDE810400420FEF7AA
:103DF000B5BD0000000402400080404270B512488A
:103E00000024016821F440210160016801600F4D28
:103E10000126C5F8A4623046FEF7A0FDC5F8A062F1
:103E20000120FEF79BFD07E0641CE4B2FA2C03D9E5
:103E3000FFF7C2FF012070BDD5F824020028F3D19E
:103E4000C5F8A00270BD000000040240008040429E
:103E50002DE9F047134C814600216088401E83B253
:103E60002088401E82B2084600F0B8F90E4E0020AD
:103E7000C6F8BC024FF00108C6F8B882054609E052
:103E8000002703E0484600F023FB7F1C2088B8424F
:103E9000F8D86D1C6088A842F2D8C6F8BC82BDE88C
:103EA000F087000028190020008040422DE9FE4FD5
:103EB000161ACDE900104FF000085D1A47464FF082
:103EC000FF30002E02DD4FF0010102E003D14FF080
:103ED00000018B4602E08346C6F10006002D02DD9C
:103EE0004FF0010002E003D14FF00000824602E0F3
:103EF0008246C5F10005AE4201DD344600E02C46A5
:103F0000601C4FF00009029018E0009881B20198FF
:103F100080B200F019F8B0442F44A04504DD0198A8
:103F2000A8EB040858440190A74203DD00983F1B0A
:103F30005044009009F101001FFA80F90299894567
:103F4000E3DDBDE8FE8F000010B500F043F9034843
:103F50000088BDE8104000F0BBBA000088060020D1
:103F600010B500F023F9CF2000F06CFA002000F02B
:103F700059FAD92000F056FA302000F053FAED201B
:103F800000F060FA642000F04DFA032000F04AFAD5
:103F9000122000F047FA812000F044FAE82000F0F7
:103FA00051FA852000F03EFA102000F03BFA7A200A
:103FB00000F038FACB2000F045FA392000F032FA50
:103FC0002C2000F02FFA002000F02CFA342000F012
:103FD00029FA022000F026FAF72000F033FA202018
:103FE00000F020FAEA2000F02DFA002000F01AFA82
:103FF000002000F017FAC02000F024FA1B2000F087
:1040000011FAC12000F01EFA122000F00BFAC520B0
:1040100000F018FA262000F005FA262000F002FA37
:10402000C72000F00FFAB02000F0FCF9362000F0B5
:1040300009FA082000F0F6F93A2000F003FA5520BA
:1040400000F0F0F9B12000F0FDF9002000F0EAF9ED
:104050001A2000F0E7F9B62000F0F4F90A2000F089
:10406000E1F9A22000F0DEF9F22000F0EBF90020E7
:1040700000F0D8F9262000F0E5F9012000F0D2F98F
:10408000E02000F0DFF91F2000F0CCF9242000F040
:10409000C9F9242000F0C6F90D2000F0C3F9122060
:1040A00000F0C0F9092000F0BDF9522000F0BAF983
:1040B000B72000F0B7F93F2000F0B4F90C2000F071
:1040C000B1F9152000F0AEF9062000F0ABF90E2092
:1040D00000F0A8F9082000F0A5F9002000F0A2F9EE
:1040E000E12000F0AFF9002000F09CF91B2000F067
:1040F00099F91B2000F096F9022000F093F90E20A8
:1041000000F090F9062000F08DF92E2000F08AF9D9
:10411000482000F087F93F2000F084F9032000F0E8
:1041200081F90A2000F07EF9092000F07BF93120A6
:1041300000F078F9372000F075F91F2000F072F9CF
:104140002B2000F07FF9002000F06CF9002000F037
:1041500069F9012000F066F93F2000F063F92A2098
:1041600000F070F9002000F05DF9002000F05AF92D
:10417000002000F057F9EF2000F054F9112000F072
:1041800061F97820FEF7D8FB292000F05BF90020C8
:1041900000F078F904490120C1F8B402BDE81040EC
:1041A0004FF6FF70FFF754BE0080404210B5084C38
:1041B0000020C4F8B002642004F52C74FEF7BCFBA8
:1041C00001202060BDE810403220FEF7B5BB0000A2
:1041D000008040420B460246AFF300802DE9F041DB
:1041E000DFF8508007461C4615460E4698F80A0030
:1041F00000F028F9380A00F015F9F8B200F012F9C9
:10420000280A00F00FF9E8B200F00CF998F80C0059
:1042100000F018F9300A00F005F9F0B200F002F9E8
:10422000200A00F0FFF8E0B200F0FCF8BDE8F04131
:1042300000F018B9281900202DE9FF4F81B08A46F7
:104240000EA9DFF8EC9091E83100203800F0FF086B
:104250000AEB0400401E83B20198B9F800B000EBED
:104260005400401E82B251460198FFF7B7FF002D5F
:104270004FF0000549D12F4808EB480100EB810AB7
:1042800000F2744000EB081817E00C2C03D018F86B
:10429000057000260CE01AF80570FAE7F80701D05F
:1042A000039800E0049800F013F97F08761CF6B23A
:1042B000B6EB540FF2D36D1CEDB2A542E5D326E068
:1042C0000C2C08D01C4901EB08100026475D0AEBB6
:1042D0000500009014E0174808EB480100EB81004E
:1042E000F3E70398A9F80000F80706D0009881B218
:1042F0000198304480B2FFF727FE7F08761CF6B2A3
:10430000B6EB540FEDD36D1CEDB2A542D8D30B48DC
:10431000A9F800B04188008805B0491EBDE8F04FFB
:10432000401E8BB282B200210846FFF757BF000043
:1043300088060020F89A00086C9F000828190020C1
:104340002DE9FF4F83B00026DDF840801D468346EF
:104350003446B1464FEA5807DFF864A02AE0281B2C
:10436000401EC1B20A2003F05DFF0599B1FBF0F0D9
:104370000A21B0FBF1F201FB120026B9691E8C4242
:1043800001DA40B101263030C0B28DE8010307FBED
:1043900004B080B205E0202207FB04B08DE80403DE
:1043A00080B2BAF800304FF478420499FFF744FF26
:1043B000641CE4B2AC42D2D307B0BDE8F08F000079
:1043C0008A0600202DE9FE4F1C4691468A46054686
:1043D000114E124FDFF84880DDF830B014E031881C
:1043E000491EA94215DB7188491E514511DB8DE834
:1043F000010A3B88B8F8002051462846FFF71CFF09
:1044000005EB590085B2641C2078A0F120015E29DB
:10441000E5D9BDE8FE8F0000281900208A0600209B
:104420008806002070B5064C0021C4F8BC12012596
:10443000C4F8B85204F52E7400F088FF656070BDB2
:104440000080404210B5064C0021C4F8BC12C4F8EC
:10445000B81204F52E7400F079FF0120606010BDE1
:10446000008040420148007AFFF7ECBF2819002085
:1044700010B50C46FFF7E6FFE0B2BDE81040FFF7CD
:10448000D1BF000011492A224FF4A0734A812B2288
:104490008A812C220A81F02258B101280DD00228ED
:1044A0000FD0032811D10B804A80A8213620FFF7B6
:1044B000DFBF0A804B800821F8E70B804A80682123
:1044C000F4E70A804B80C821F0E7704728190020E4
:1044D00070B5094C05460020C4F8BC020126C4F89A
:1044E000B862280A04F52E7400F030FFE8B200F03C
:1044F0002DFF666070BD00000080404210B504468C
:10450000007B012802D1206802F0CAFA0020206056
:104510006060A060207310BD5FF0010200F07F03B7
:104520000B70C00909D043F08003521C01F8013B15
:10453000042AF3DD4FF0FF307047104670472DE935
:10454000F0410446002500680F462E4610B10220B7
:10455000207315E001202073084602F00DFB206057
:10456000002808D0C4E9016702E0206846556D1CA8
:10457000A068A842F9D8BDE8F081206846556D1CB6
:10458000A068A842F9D866608842F4D22660F2E7B3
:104590002DE9FF47174688468146FBF79AFE84B20D
:1045A0004046FBF796FE0026A01D02F0E5FA050046
:1045B00025D0A11DFBF74EFE12A0224601682960FE
:1045C0008088A88049462846FBF797FE4046FBF7BF
:1045D00080FE034600200DF1040A012100908AE8C4
:1045E0008300424629460A2000F042F900B1012624
:1045F000284602F055FA304604B0BDE8F0870120A5
:10460000FAE7000024637273702F00002DE9FF5F4A
:104610009A46934600251046DDF844900E9F139C61
:10462000FBF757FE06B2BBF1000F1FD006F11100D9
:104630001FFA80F807B10225109868B145F004050B
:10464000FBF747FEC7B24846FBF743FEC11901EB33
:104650000800001D1FFA80F80F9870B1012807D0DC
:10466000022808D0022004B0BDE8F09F0120FAE73C
:1046700045F00C0501E045F01405129808B145F02D
:104680002405009860B3019850B345F0C007009826
:10469000FBF71FFE05460198FBF71BFE291801EBEF
:1046A0000800001D85B229462046FFF748FF206814
:1046B000C0B12946FBF7CEFDD4E90030411C1022E1
:1046C00061601A54D4E900010144681FFFF724FF18
:1046D00000B2002808DA2046FFF710FF0520C2E7E5
:1046E0000320C0E70420BEE7616823680844411C3A
:1046F000616000221A54D4E90030421C0421626037
:104700001954D4E90050421C4D2362602B54D4E963
:104710000050421C626051232B54D4E90030451CE8
:10472000542265601A54D4E90050431C63602A5433
:10473000D4E90030421C62601954D4E90020411CC5
:1047400061601754D4E90030411C4FEA1A226160BD
:104750001A54D4E90030421C626003F800A0D4E986
:104760000030411C320A61601A54D4E90020411C17
:1047700061601654D4E90001084432465946FBF7FB
:10478000BCFD606830446060780736D5B9F1000F31
:1047900001D10FF2D8091098FBF79BFD85B2D4E93F
:1047A0000030411C2A0A61601A54D4E90020411CDF
:1047B00061601554D4E9000108442A461099FBF7BA
:1047C0009CFD6068284460604846FBF782FD85B226
:1047D000D4E90030411C2A0A61601A54D4E900204F
:1047E000411C61601554D4E9000108442A46494639
:1047F000FBF783FD606828446060380618D5009890
:10480000FBF767FD85B2D4E90030411C2A0A6160DC
:104810001A54D4E90020411C61601554D4E9000108
:1048200008442A460099FBF768FD606828446060E8
:10483000780618D50198FBF74CFD85B2D4E9003015
:10484000411C2A0A61601A54D4E90020411C6160AD
:104850001554D4E9000108442A460199FBF74DFD9F
:104860006068284460600020FDE600000000000051
:104870002DE9FF5F8B46DDE90EA24FF00005119C8C
:1048800099465FEA0008294608D1012004B0BDE836
:10489000F09F232817D02B2815D06D1C1BF905007D
:1048A0000028F6D141F030070AB147F0010705EBC7
:1048B0000906B61C5FEA0A000DD0012805D00228BF
:1048C00006D00320E2E70220E0E747F0020701E01C
:1048D00047F00407B61CF11C2046FFF730FE2068A5
:1048E000A0B1F11CFBF7B6FCD4E90020411C6160CB
:1048F0001754D4E9000101443046FFF70DFE0028AB
:1049000006DA2046FFF7FAFD0520BFE70420BDE7E1
:10491000616823680844411C2A0A61601A54D4E97A
:104920000020411C61601554D4E9000108442A4666
:104930005946FBF7E2FC6068BAF1000F284460605A
:104940000BD02368411C4FEA182261601A54D4E945
:104950000030421C626003F80080029850B1D4E934
:10496000000108444A460299FBF7C7FC616801EB65
:1049700009006060002089E770B50C4605460421F7
:104980002046FFF7DCFD2168B9B160686223421C54
:1049900062600B54D4E90030411C022261601A5459
:1049A000D4E90030411C2A0A61601A54D4E900207D
:1049B000411C61601554002070BD012070BD70B5B0
:1049C0000C46054604212046FFF7B9FD2168B9B120
:1049D00060686223421C62600B54D4E90030411CC1
:1049E000022261601A54D4E90030411C2A0A616035
:1049F0001A54D4E90020411C61601554002070BD98
:104A0000012070BD70B50C46054604212046FFF715
:104A100096FD2168B9B160685023421C62600B5456
:104A2000D4E90030411C022261601A54D4E90030FC
:104A3000411C2A0A61601A54D4E90020411C6160BB
:104A40001554002070BD012070BD70B50C460546A0
:104A500004212046FFF773FD2168B9B16068622325
:104A6000421C62600B54D4E90030411C0222616098
:104A70001A54D4E90030411C2A0A61601A54D4E95E
:104A80000020411C61601554002070BD012070BDE4
:104A90002DE9F0474FF00008089C1F4691468A46D2
:104AA000060045460AD10120BDE8F08759F82500E7
:104AB00020B3FBF70EFC6D1C8044EDB2BD42F5D374
:104AC00007EB470101EB0805E91D2046AD1CFFF788
:104AD00036FD2168A1B160688222431C63600A54DC
:104AE000D4E9000101442846FFF716FD00B2002872
:104AF00008DA2046FFF702FD0420D5E70220D3E7BD
:104B00000320D1E7616823680844411C320A6160D0
:104B10001A54D4E90020411C61601654002520E09D
:104B200059F82500FBF7D5FB0646020AD4E9003008
:104B3000411C61601A54D4E900314A1C62605E5421
:104B4000D4E90001084459F825103246FBF7D5FB9B
:104B5000606823683044411C61606D1C03F800A04C
:104B6000EDB2BD42DCD300209EE700002DE9F04706
:104B70004FF000081C4617468946060045460BD1F3
:104B80000120BDE8F08700BF59F8250010B3FBF7FE
:104B9000A0FB6D1C8044EDB2BD42F5D308EB470588
:104BA000E91D2046AD1CFFF7CAFC2168A1B1606871
:104BB000A222431C63600A54D4E900010144284640
:104BC000FFF7AAFC00B2002808DA2046FFF796FC9F
:104BD0000420D6E70220D4E70320D2E761682368E7
:104BE0000844411C320A61601A54D4E90020411C77
:104BF0006160165400251CE059F82500FBF769FB9D
:104C00000646020AD4E90030411C61601A54D4E916
:104C100000314A1C62605E54D4E90001084459F82E
:104C200025103246FBF769FB60686D1C3044EDB21D
:104C30006060BD42E0D30020A3E7F0B50446002049
:104C400001235D05106012E0275C166807F07F07FE
:104C500007FB03661660265C360601D4401CF0BDD7
:104C6000DB01AB4202D36FF00100F0BD401C884273
:104C7000EADB4FF0FF30F0BDF8B50D4607461646AB
:104C80002F21C01CFBF71BFB0021009130B3441CFB
:104C90006A460421781CFFF7D0FF252001F06CFF45
:104CA0002860E8B12521FBF7D5FA2422214628689F
:104CB000FBF7B7FA009804F124072C3884B2601C83
:104CC00001F05AFF306068B1611CFBF7C3FA22465D
:104CD00039463068FBF7A5FA0020F8BD0120F8BD81
:104CE0000220F8BD286801F0DBFE0320F8BD417802
:104CF000022901D001207047817819B1012901D022
:104D0000FF207047C07870472DE9F84F05460078BE
:104D1000DDF828B000F00F0400200E460090C4F328
:104D2000410117461970984604F0080A6A460421A2
:104D3000681CFFF782FF054400986D1C022876D39B
:104D4000E10774D129884CBAA11C894688426ED3E8
:104D500038A1A81CFBF795FA10B10F20BDE8F88F19
:104D600098F8000020B1012828D002285FD125E062
:104D7000BAF1000F5BD1601C01F0FEFE3060E0B3C1
:104D8000611CFBF767FA2246A91C3068FBF749FA59
:104D90000098001BA0F10208401E01F0EDFE3860F3
:104DA00040B108F10101FBF755FA29194246891C67
:104DB00038682FE0306801F073FE38E000998945CB
:104DC00035D805EB0408BBF1000FB8F8020040BA73
:104DD000ABF800002BD0601C01F0CEFE306060B15B
:104DE000611CFBF737FA2246A91C3068FBF719FA59
:104DF0000098041BE01E241F00E018E001F0BCFE38
:104E000038600028D6D0611CFBF724FA08F10401B1
:104E100022463868FBF705FA2B213046FBF74FFA9C
:104E200028B923213046FBF74AFA002896D0FF2004
:104E300094E7000024637265710000004178022944
:104E400004D1817811B9C0780A2801D001207047B7
:104E5000002070474178022904D1817811B9C078C7
:104E60000A2801D0012070470020704741780229AC
:104E700004D1817811B9C0780A2801D00120704787
:104E8000002070474278022A09D18278B2EB112FB4
:104E900005D1C078C9B2884201D1002070470120F5
:104EA0007047000038B504460078FF210009421E13
:104EB0000E2A01D3084638BD0328FCD100200090FB
:104EC0006A460421601CFFF7B8FE20440099401C8C
:104ED000022907D32278D20704D1028852BA921C41
:104EE0008A4201D9FF2038BD04A1801CFBF7C9F913
:104EF00008B10F2038BD032038BD0000246372655F
:104F0000710000000146FF208A78002A0BD1CA7880
:104F1000142A08D1087938B1012805D0022803D015
:104F2000802803D00220704700207047012070477E
:104F3000827801211AB9C0781E2800D100210846C4
:104F4000704700001FB50022009201920292039266
:104F50000A4601466B460A20FFF708FE002819D1D1
:104F60000198009982B2012003F0B8FD6420FDF79A
:104F7000E3FC012003F00EF882B20749012003F0A0
:104F800045FB05480B210078B1EB101F02D103A0AF
:104F900001F062FD1FBD000068100020B3C9B9A672
:104FA000C8A1CFFBB6A9D4C40D0A00007FB5002468
:104FB00015480094019402941249039401604FF43F
:104FC0008031C0E901140461047680F820400F4963
:104FD000C0E90A140125C561C46080F8304045610C
:104FE000FDF7E9FA08B1FCF7EFFE0E20CDE9000568
:104FF000694602940448FDF735FA002801D0FCF711
:10500000E3FE7FBD00200140C80600200100000F24
:105010007FB500241548009401940294124903942A
:1050200001604FF48031C0E9011401250461057667
:1050300080F820400E49C0E90A14C561C46080F8B8
:1050400030404561FDF7B7FA08B1FCF7BDFE0D2011
:10505000CDE90005694602940448FDF703FA0028EB
:1050600001D0FCF7B1FE7FBD0021014010070020F8
:105070000100000F00B58FB01C216846FBF7EAF86D
:105080001C2107A8FBF7E6F819484FF02041102231
:10509000016018494160042181600021C160C0E9BC
:1050A00004128161C16113020162C0E90913930214
:1050B000C0E90B134163816341640F200DF1080CBB
:1050C0000090112301908CE80F00CDE906100DF13E
:1050D000240C08908CE80F000D9107AA694604483B
:1050E000FEF798F9002801D0FCF76EFE0FB000BD66
:1050F00058070020040100A02DE9F04F87B01421CB
:105100006846FBF7A7F861480024016841F02001D8
:105110000160016801F020010591016841F0800102
:105120000160016801F080010591016841F004010E
:105130000160016801F004010591016841F001017D
:105140000160016801F001010591016841F002016F
:105150000160016801F002010591016841F0400120
:105160000160016801F040010591016841F0100102
:105170000160016801F010010591016841F008012A
:1051800001600068DFF8089100F008004FF4C15595
:105190000590002229464846FDF7F1FD3D4F4FF2AC
:1051A0002906002231463846FDF7E9FD002202219A
:1051B0003948FDF7E4FDDFF8E4A000220221504663
:1051C000FDF7DDFDDFF8D8B04FF4825801224146EB
:1051D0005846FDF7D4FD8020CDE9000469465046CD
:1051E0000294FDF7CFFC00950125CDE901546946F5
:1051F00048460394FDF7C6FC0096CDE90154694684
:1052000038460394FDF7BEFC1620CDE9000469463C
:1052100038460294FDF7B6FCEF02CDE9007469460A
:1052200020480294FDF7AEFC0226CDE90065CDE9E9
:10523000026469461848FDF7A5FCCDE90065CDE993
:10524000026469465046FDF79DFCCDE90085CDE935
:10525000025469465846FDF795FC68028DE8310016
:1052600069460D48FDF78EFC012202210A48FDF730
:1052700086FD012239464846FDF781FD01221103D2
:105280004846FDF77CFD07B0BDE8F08F303802409E
:1052900000080240000402400018024000000240E2
:1052A000000C0240001402401CB500240F4800947A
:1052B0000D490194016042F2CF01C0E901140921B6
:1052C000C16080218161FEF733F908B1FCF77CFDF4
:1052D0000094694605480194FEF7E2F8002801D0E1
:1052E000FCF772FD1CBD000000100040A807002064
:1052F0000C4810B50A4901604FF4E13141600021CA
:1053000081600C22C160C0E904128161C161FEF7B5
:1053100093FB002803D0BDE81040FCF755BD10BD3D
:1053200000100140F0070020FEE7FEE700F00F004C
:10533000092801D830307047373070477047000077
:10534000014B184400F06CB800000C0830B508217F
:1053500000230A4A0124050602D5C2F8944201E05E
:10536000C2F89432C2F88C32C2F88C424006000E69
:10537000491E11F0FF01EED130BD00000080404217
:105380001C49884201D2002070471B49884201D243
:10539000012070471949884201D2022070471849FC
:1053A000884201D2032070471649884201D2042066
:1053B00070471549884201D2052070471349884239
:1053C00001D2062070471249884201D20720704757
:1053D0001049884201D2082070470F49884201D203
:1053E000092070470D49884201D20A2070470B20DE
:1053F00070470000004000080080000800C000085E
:10540000000001080000020800000408000006086F
:105410000000080800000A0800000C0800000E0840
:1054200010B5002303E010C841F823405B1C9342F1
:10543000F9D310BD2DE9F04F87B04FF000081746A3
:105440000E460446CDF81480B0F1006F38D3A007A3
:1054500036D1FDF72FFB1C48254604EB87074CF29D
:105460005039844215D24FF0010A4FF0020BBD4271
:105470000FD22868401C11D02846CDF80080FFF7D5
:105480007FFF02AA05A982E8010C6846FDF77EFAB3
:1054900028B14846FCF77EFD70B10FE02D1D48464F
:1054A000FCF778FDE3E70023214602203268FDF790
:1054B000C3FA18B9241D361DBC42F4D3FDF7B2FA65
:1054C00007B0BDE8F08F000000100C087047000026
:1054D0002DE9FF4F83B0884610A9044691E8600487
:1054E000814628782C4F9B46002852D03888A0EB64
:1054F0005601A1424DDB79888A1B424549DB297858
:10550000802915D9801BA04243DB424541DB202E78
:1055100033D0CDE9005A059A182E5B464146204605
:1055200034D0FCF70FFEA01984B215F8020FDBE7A8
:105530000D290DD0102E12D910228DE806045B46DD
:1055400041462046059AFEF777FE0834A4B211E0E2
:1055500008EB06001FFA80F84C466D1C0AE08DE847
:1055600042045B4641462046059AFEF765FE04EB81
:10557000560084B215F8010FB6E7CDE9005A5B4634
:1055800041462046059AFCF7CBFECCE7FCF750FEDF
:10559000C9E707B0BDE8F08F28190020FDF7FABB76
:1055A00030B593B030216846FAF754FE14210CA8A8
:1055B000FAF750FE1E480025016841F08051016055
:1055C000006800F0805011901A48016841F4804151
:1055D00001600068022400F48040119001200090D6
:1055E000000401908001CDE90640082008904FF4A6
:1055F000A870CDE9090404200B906846FDF754FD1E
:1056000008B172B6FEE70CA90F2081E831004FF413
:10561000A0500F904FF48050109005210CA8FDF77A
:1056200053FC002801D072B6FEE713B030BD000075
:1056300040380240007000400248016841F47001A7
:105640000160704788ED00E00148FDF7FEBF0000F3
:10565000A8070020F0B50268254C264D264E274F9E
:10566000274B4FF0804CA04209D0604507D0A8429C
:1056700005D0B04203D0B84201D0984204D122F004
:10568000700E4A6842EA0E02A0421BD0604519D053
:10569000A84217D0B04215D0B84213D0984211D0CA
:1056A000184DA8420ED0184DA8420BD0174DA84255
:1056B00008D0174DA84205D0164DA84202D0164D6D
:1056C000A84203D122F44075CA682A434D6922F0EA
:1056D00080022A4302608A68C2620A688262A0422B
:1056E00001D0984201D10969016301214161F0BDF6
:1056F000000001400004004000080040000C004091
:1057000000040140004001400044014000480140C5
:1057100000180040001C0040002000402DE9FF4F11
:1057200081B00D46DDE91087464906464FF47840C2
:10573000DDF838B0DDF8489008809246012442A395
:1057400010228C2128200094FEF73CFE3FA310225B
:105750008C2178200094FEF735FE3DA31022A02175
:1057600028200094FEF72EFE3AA31022A0217820D4
:105770000094FEF727FE38A31022B42128200094BD
:10578000FEF720FE35A31022B42178200094FEF706
:1057900019FE33A31022C82128200094FEF712FE20
:1057A00030A31022C82178200094FEF70BFE2EA310
:1057B0001022DC2128200094FEF704FE102404238C
:1057C00032468C2140200094FEF7BAFD04232A467D
:1057D0008C2190200094FEF7B3FD04235246A021B3
:1057E00040200094FEF7ACFD04230094A0219020FB
:1057F000049AFEF7A5FD04235A46B42140200094E4
:10580000FEF79EFD00940423B42190200F9AFEF72A
:1058100097FD04234246C82140200094FEF790FDE6
:1058200004233A46C82190200094FEF789FD032303
:105830004A46DC2160200094FEF782FD05B0BDE8F9
:10584000F08F00008806002078313A0079313A0064
:1058500078323A0079323A0078333A0079333A00B4
:1058600078343A0079343A006661632069733A000B
:105870002DE9F04FF4484FF000082DED0C8B85B06A
:105880004FEA000A9FEDF10A80F814809FEDF09B2B
:105890009FEDF1AB9FEDF2BBDFF8CCB380ED060AD4
:1058A00040F2CB1060F30F0440F6796060F31F44C0
:1058B00040F6D15060F30F0540F6866060F31F4557
:1058C0004FF4ED7060F30F0640F24B2060F31F467B
:1058D00040F6BC5060F30F0740F21D2060F31F47F5
:1058E0009AF8141008F10100C0B221F040018AF8C2
:1058F000141080460128D3D00228D1D00328CFD05D
:10590000B8F1040FCCD19FEDD90B01F0F7F851ECB1
:10591000100BFAF7B1FE1FFA80F840F6E2312E20A4
:1059200011FB01F110FB00F00844FAF798FE41EC7E
:10593000100B01F0E3F851EC100BFAF79DFE00EEAE
:10594000108A1FFA80F9B8EE401A00EE109AB8EEED
:10595000400AC1EE000A10EE900AFAF7A6FE41ECEA
:10596000180B53EC192BFAF7B3FE42D353EC1A2B56
:1059700051EC180BFAF7C4FE3BD3B8F1000F38D046
:10598000B9F1000F35D09FEDBB0B01F0B7F851EC2A
:10599000100BFAF771FE1FFA80F8152140F66940E6
:1059A00011FB01F110FB00F00844FAF758FE41EC3E
:1059B000100B01F0A3F851EC100BFAF75DFE00EEAE
:1059C000108A81B2B8EE401A00EE101AF8EE400AC2
:1059D00081EE200A10EE100AFAF767FEB0EE49CA0F
:1059E000F0EE69CA41EC180B53EC1C2BFAF770FE71
:1059F00023D2BBF80210BBF80000143914384FF062
:105A0000000889B280B24FF6FF7200F04FF91421FE
:105A10004FF47842084600F049F953EC1B2B51EC47
:105A2000180BFAF73BFDFAF727FE390CBAB280B231
:105A30000292CDE90310330C67E0B0EE4ADAF0EEE3
:105A40006ADA53EC1D2B51EC180BFAF759FED0D340
:105A50009FED8A0B01F052F851EC100BFAF70CFE97
:105A60001FFA80F840F6F13140F65C4011FB01F17D
:105A700010FB00F00844FAF7F2FD41EC100B01F0C6
:105A80003DF851EC100BFAF7F7FD00EE108A80B2EA
:105A9000F8EE400A00EE100AB8EE401A80EE810AD5
:105AA00010EE100AFAF701FE41EC180B53EC1C2B18
:105AB000FAF70EFE06D353EC1D2B51EC180BFAF738
:105AC0001FFE2CD2BBF80210BBF8000014391438AA
:105AD0004FF0000889B280B24FF6FF7200F0E6F88E
